:020000040800F2
:100000000050002021020008270200082B020008EF
:100010009D020008A1020008E9020008000000009B
:100020000000000000000000000000003103000894
:100030003503000800000000390300083D030008F4
:100040004D0300084D0300084D0300084D03000850
:100050004D0300084D0300084D0300084D03000840
:100060004D0300084D0300084D0300084D03000830
:100070004D0300084D0300084D0300084D03000820
:100080004D0300084D0300084D0300084D03000810
:100090004D0300084D0300084D0300084D03000800
:1000A0004D0300084D0300084D0300084D030008F0
:1000B0004D0300084D0300084D0300084D030008E0
:1000C0004D0300084D0300084D0300084D030008D0
:1000D0004D0300084D0300084D0300084D030008C0
:1000E0004D0300084D0300084D0300080000000008
:1000F0000000000000000000000000000000000000
:1001000000000000000000005FF808F100B583B0B7
:1001100000F0AAF9304B314A1360314A1360314B79
:10012000314A32498B4204D21168196004330432D7
:10013000F7E72A4B1A682E4B9A4200D0FEE7284B6D
:100140001A682C4B9A42F9D1234B2B4A13602B4A45
:1001500013602B4B02E000221A600433294A9342B9
:10016000F9D3254B1B6813B9244B1B6803B1FEE779
:1001700000F086F9694601A800F022F9224C234BD1
:10018000E41AA4100025AC4214DC214C214BE41AE3
:10019000A4100025AC4213DC0099019800F004FF84
:1001A00005461D4C1D4BE41AA410002C0EDC2846FD
:1001B00000F0E2F8154B53F8253098470135E2E797
:1001C000144B53F8253098470135E3E7013C134BB6
:1001D00053F824309847E8E7BABADECA0000002096
:1001E000A0000020000000200C1C0008A40000203B
:1001F0007856341232547698A40000209848002093
:10020000A40000209C480020780300087803000820
:1002100078030008780300087803000878030008D2
:1002200008B5FFF773FF00BEFEE71EF0040F0CBF1A
:10023000EFF30880EFF309807146414A10472DE93A
:10024000F04182B004468846124B5E6B9F6B9D6AFC
:100250001B6B13F0020F03D00E4BDB6A002B0CDB81
:100260000D4800F0B5F8CDF800803B4632462946EF
:10027000204600F009F900BEFEE74BF6AB6100F046
:100280007DF90028ECD0034B4FF00042DA6202B057
:10029000BDE8F08100ED00E0D41A000800BEFEE7E2
:1002A0001EF0040F0CBFEFF30880EFF309807146D6
:1002B000244A10472DE9F04182B004468846084B95
:1002C0005E6B9F6B9D6A074800F082F8CDF8008056
:1002D0003B4632462946204600F0D6F800BEFEE7EF
:1002E00000ED00E0E41A00081EF0040F0CBFEFF36D
:1002F0000880EFF309807146134A10472DE9F04159
:1003000082B004468846084B5E6B9F6B9D6A074827
:1003100000F05EF8CDF800803B4632462946204684
:1003200000F0B2F800BEFEE700ED00E0F01A0008B1
:1003300000BEFEE700BEFEE700BEFEE7704700001D
:100340003F020008B5020008FD02000800BEFEE7FB
:100350000C1C000800000020A40000200C1C000859
:100360000000000000000000A40000209C480020C5
:08037000000000000000000085
:10037800FEE7000008B503460C4A12685AB10B4A5A
:100388001068033323F003030344094A934206D851
:10039800064A136008BD054A06491160EFE700F0F8
:1003A800A7FE0C2303604FF0FF30F3E7A8000020FE
:1003B800004C00209C48002001230360014B0B6087
:1003C800704700BF040000200FB400B583B004AB31
:1003D80053F8042B01938021064800F0EBFE002817
:1003E80003DD0146034800F037F803B05DF804EB7D
:1003F80004B07047B00000202DE9F04385B00446F2
:100408000F4643560BB10E461EE0042528462146EA
:10041800ABBE0446384605B0BDE8F08314F9011BAD
:1004280004AA1A4402F8101C0133AB42F6D304AAFA
:100438001344002203F8102C4FF00408E946404604
:100448004946ABBE8046761B002EE3D03546102EBB
:1004580028BF10250023E8E708B5FFF7CDFF08BD42
:1004680008B500F0FDF8024A024B9A6008BD00BFCB
:100478000000000800ED00E008B500F019F908BD1B
:10048800F8B504460D4617461E462748FFF79CFF59
:1004980021682648FFF798FF61682548FFF794FF11
:1004A800A1682448FFF790FFE1682348FFF78CFF15
:1004B80021692248FFF788FF61692148FFF784FF17
:1004C800A1692048FFF780FFE1691F48FFF77CFF1B
:1004D8001E48FFF779FF29461D48FFF775FF1D4C99
:1004E800E16A1D48FFF770FF216B1C48FFF76CFF9E
:1004F800E16B1B48FFF768FF15F0800F0AD115F470
:10050800004F0CD11748FFF75FFF06991648FFF711
:100518005BFFF8BD39461548FFF756FFEFE7314650
:100528001348FFF751FFEDE7B8190008C81900088C
:10053800D8190008E8190008F8190008081A00086E
:10054800181A0008281A0008381A0008481A00085B
:10055800541A000800ED00E0641A0008741A000834
:10056800841A0008B41A0008BC1A0008941A000873
:10057800A41A000883691A888A4201D000207047AB
:100588000268033A012A03D80233836101207047C5
:100598000020704782B00023019300932C4A13680F
:1005A80043F4803313602A4B1B6803F40033009331
:1005B800019B01330193009B1BB9019BB3F5A06F0D
:1005C800F1D1234B1B6813F4003F06D0012300939D
:1005D800009B012B04D002B0704700230093F7E77B
:1005E8001C4B1A6842F010021A601A6822F00302C3
:1005F8001A601A6842F002021A60A3F580535A681A
:100608005A605A685A605A6842F480625A605A6856
:1006180022F47C125A605A6842F4E8125A601A6846
:1006280042F080721A600A4B1B6813F0007FFAD000
:10063800074B5A6822F003025A605A6842F00202D5
:100648005A60034B5B6803F00C03082BF9D1C2E72F
:10065800001002400020024008B5FFF79BFF08BDCC
:1006680008B5104B1A6842F001021A6059680E4A20
:100678000A405A601A6822F0847222F480321A60A2
:100688001A6822F480221A605A6822F4FE025A601C
:100698004FF41F029A60FFF7DFFF044B4FF0006230
:1006A8009A6008BD001002400000FFF800ED00E06D
:1006B8001F4B5B6803F00C03042B15D0082B17D0D5
:1006C8001BB11C4B1C4A1A6002E01A4B1A4A1A60EA
:1006D800174B5B68C3F30313184AD35CDAB21549A6
:1006E8000B68D3400B607047124B134A1A60EFE750
:1006F8000F4A53685268C3F38343023312F4803FAE
:100708000AD00B4A526812F4003F0BD00C4A02FB85
:1007180003F3084A1360DBE7094A02FB03F3054ABF
:100728001360D5E7044A02FB03F3024A1360CFE7DC
:10073800001002401C00002000127A000C0000206B
:1007480000093D0070B582B0054600238DF80730DA
:1007580004E0264A0021D1540133DBB2632BF8D9D7
:1007680000240BE02A460DF10701002000F0E6FB0B
:100778009DF807201D4B1A550134E4B29DF8073047
:10078800FF2BEFD1013C0020184B1855034607E01A
:100798004D1C164E755D4B2D09D101200133DBB27E
:1007A80019469C4220DD114AD25C4F2AF0D0412ADA
:1007B800F4D14A1C0D4DAA5C4C2AEFD18A1CAA5CC4
:1007C800522AEBD1CA1CAA5C452AE7D10A1DAA5CA9
:1007D800412AE3D14A1DAA5C442ADFD106316A5C6A
:1007E800592ADBD10120D9E702B070BD30010020C1
:1007F80030B583B000238DF8073004E0194A002192
:10080800D15401339BB244F24F629342F6D900248B
:10081800254609E09DF80720124B1A55A11E5B5C7E
:10082800432B13D00134A4B29DF80730FF2B15D009
:100838000D4A0DF10701002000F080FB002DE9D1E1
:100848009DF807303A2BEFD10125EDE7631E0549E6
:10085800CB5C4C2BE6D14F2AE4D100E0002528469A
:1008680003B030BD3001002080841E0008B50E4959
:10087800002000F047FB9620FFF764FF0028F6D021
:100888000A49002000F03EFB6420FFF75BFF0028C8
:10089800F6D00749002000F035FB9620FFF752FFFD
:1008A8000028F6D008BD00BF541B0008601B0008D4
:1008B800681B000830B59BB004460D466422002131
:1008C80001A800F01BFC2B462246074901A800F0AE
:1008D8001DFC01A9002000F015FB0448FFF732FFBA
:1008E8000028F6D01BB030BD381B0008E0C8100047
:1008F8002DE9F041CEB006460F4690461D466424C9
:100908002246002135A800F0F9FB224600211CA848
:1009180000F0F4FB2246002103A800F0EFFB284674
:1009280000F014FCC4B20634E4B2CDF800803B46B3
:100938003246164935A800F0E9FB224614491CA89E
:1009480000F0E4FB2A46134903A800F0DFFB00E0AF
:10095800C0B935A9002000F0D5FA0F48FFF7F2FE1C
:100968000128F5D11CA9002000F0CCFAC820FFF717
:10097800E9FE0128ECD103A9002000F0C3FAFFF733
:1009880037FFE5E705484EB0BDE8F081001B0008D9
:100998001C1B00082C1B0008E093040030010020F9
:1009A800154BDB6813F0010FFAD1134B1B6913F0D9
:1009B800800F05D0104B114A5A6002F188325A60F4
:1009C8000D4B1A6942F002021A61800200F10060C0
:1009D80058611A6942F040021A61074BDB6813F04C
:1009E800010FFAD1044BDA6842F02002DA601A6982
:1009F80022F002021A617047002002402301674575
:100A080010B50C2404E02046FFF7CAFF0134E4B215
:100A18003F2CF8D910BD000030B4184BDB6813F038
:100A2800010FFAD1154B1B6913F0800F05D0134B3A
:100A3800134C5C6004F188345C60002418E00F4DAE
:100A48002B6943F001032B6131F8143020F8023B85
:100A58000A4BDB6813F0010FFAD1084BDD6845F04B
:100A68002005DD601D6925F001051D610134E4B232
:100A7800A3B29342E3D330BC704700BF00200240CA
:100A8800230167450B2A00F2C28010B4012841D027
:100A980018B102287CD010BC704707291BD8082A37
:100AA8000ED00C2A11D089000F2404FA01F35848FB
:100AB800046824EA030402FA01F10C430460EAE73B
:100AC80001238B4053480360EDE701238B40524AD2
:100AD80013600822E7E70F29DDD80839C9B2082AC8
:100AE8000DD00C2A10D089000F2303FA01F04B4CCB
:100AF800236823EA00038A401A432260CBE70123D4
:100B08008B4044480360EEE701238B40424A136060
:100B18000822E8E707291BD8082A0ED00C2A11D08A
:100B280089000F2000FA01F33D4C206820EA0300F9
:100B380002FA01F108432060ADE701238B403948F0
:100B48000360EDE701238B40374A13600822E7E78B
:100B58000F29A0D80839C9B2082A0ED00C2A11D0FA
:100B680089000F2303FA01F0304C236823EA0003BD
:100B780002FA01F1194321608DE701238B402948CE
:100B88000360EDE701238B40274A13600822E7E75B
:100B980007291BD8082A0ED00C2A11D089000F2348
:100BA80003FA01F0224C236823EA000302FA01F158
:100BB8000B4323606FE701238B401E480360EDE77A
:100BC80001238B401C4A13600822E7E70F293FF6F0
:100BD80062AFA1F10803DBB2082A0DD00C2A10D0AD
:100BE8009B000F2101FA03F0144C216821EA00014F
:100BF8009A400A4322604EE7012199400D4801605E
:100C0800EEE701229A400C490A600822E8E770479B
:100C18000008014014080140100801400408014080
:100C2800000C0140140C0140100C0140040C014060
:100C38000010014014100140101001400410014040
:100C48000246A0F13003D8B2092802D9A2F1370030
:100C5800C0B270472DE9F84F06464078FFF7F0FF1D
:100C68000746B078FFF7ECFF40EA0717FFB2F078C5
:100C7800FFF7E6FF04463079FFF7E2FF0546707993
:100C8800FFF7DEFF8046B079FFF7DAFF1F4A538887
:100C980040EA034040EA081848EA052848EA0438C8
:100CA800C2F80080002527E04FEA850B0BF1090305
:100CB800F05CFFF7C5FF81460BF10A03F05CFFF714
:100CC800BFFF82460BF10B03F05CFFF7B9FF044648
:100CD8000BF10C0B16F80B00FFF7B2FF240344EAE4
:100CE800002000B240EA0A0000B240EA0910084BAE
:100CF80023F815000135EDB27A08AA42D4D8044980
:100D08004046FFF789FEBDE8F88F00BF20000020AD
:100D180080470020F8B50546007BFFF791FF0446A1
:100D2800E87AFFF78DFF0746A87AFFF789FF06469E
:100D3800687AFFF785FF44EA071444EA062444EA80
:100D480000342404014B1C60F8BD00BF20000020C3
:100D580008B5037A302B02D0342B03D008BDFFF737
:100D680079FFFBE7FFF7D6FFF8E70000034B012206
:100D78001A60043B024A1A60704700BF0410024020
:100D8800800001001D291CD801280BD010B10228B1
:100D980010D07047012303FA01F10A4A13680B4384
:100DA80013607047012303FA01F1074A13680B43E4
:100DB80013607047012303FA01F1044A13680B43D7
:100DC80013607047141002401C10024018100240B3
:100DD800054A136843F0810313600432136823F053
:100DE80003031360704700BF00100240002337E080
:100DF800424951F82200C16841F48061C16055E060
:100E08003E4850F82240E16841F48061E16050F8C2
:100E18002200C16841F40071C16047E0374951F8C8
:100E28002200C16841F00401C16049E0334951F82A
:100E38002200C16841F00801C16041E02F4850F824
:100E48002240E16841F00801E16050F82200C168E1
:100E580041F00401C16033E010BC70470133DBB2DC
:100E6800022B4AD81A46264911F833100129F5D120
:100E780010B4224850F823400021E16050F8234084
:100E8800216150F8230041611D4901EBC3014978F4
:100E9800012903D1C16841F48051C160184901EBAF
:100EA800C20189780129A3D00229A9D0144901EBEC
:100EB800C201C9780129B9D00029AFD00229BDD013
:100EC8000E4951F822400E4800EBC2004068A0606D
:100ED80051F82240E06840F40050E06051F82220C8
:100EE800002111600133DBB2022BB5D81A46044940
:100EF80011F833100129F5D1BBE770472400002011
:100F0800781B0008022814D80B789BB110B402464D
:100F1800094C54F820406360074B53F822301B6893
:100F280013F0400FF8D001310B78002BEFD110BC33
:100F380070477047704700BF2400002000230B70E3
:100F4800022817D830B4002305460B4C54F820402B
:100F5800246814F0200F04D101339342F4D1FF2305
:100F68000B700B7823B9044B53F825305B680B7072
:100F780030BC7047704700BF2400002008B5044B00
:100F8800044A1A60044B1B68044A1360984708BD5A
:100F980008ED00E000300008043000085048002048
:100FA80008B5FFF7E3FE02210846FFF7EBFE0E2126
:100FB8000220FFF7E7FE04210020FFF7E3FE0B22E3
:100FC80009210020FFF75EFD04220A210020FFF717
:100FD80059FDFFF70BFFFFF749FC39493948FFF77F
:100FE80069FC394B502239493948FFF781FC394BA4
:100FF8001860FFF7EDFE1AE0D11849780A291DD1CB
:10100800D11889782B2919D1D118C978492915D12E
:10101800314A012111700B44304A138007E03A2805
:1010280021D02D4A0121117001332C4A1380294BFC
:101038001A682A4B1B88D05C0D28DDD02649097810
:101048000129ECD0432812D00029F0D1244A127883
:1010580024498854013321490B800A2812D00132CF
:101068001F4B1A70E3E71C4A00211170DCE7D41803
:1010780064784C2CE8D11A4492784F2AE4D1FFF7CF
:101088007DFFD4E7184B1B7843B91648FFF760FE7D
:101098000023134A1370154A13700BE0FFF7B0FCD6
:1010A800114B00221A70F0E70E4A0021D154013387
:1010B8000E4A13700D4B1B78312BF5D9B7E700BFDB
:1010C800901B00089C1B0008A41B0008C41B0008F8
:1010D800D41B0008944800204A48002048480020B3
:1010E8004B48002060480020380000204C48002071
:1010F800014B1868704700BF3C00002003460244BB
:10110800934200D1704703F8011BF9E70EB46FF062
:10111800004100B59CB01DAB029006900791049168
:101128000848094953F8042B0591006802A901935E
:1011380000F0A8F80022029B1A701CB05DF804EBBE
:1011480003B070473C0000200802FFFF034613F875
:10115800012B002AFBD1181A0138704730B5141E2C
:1011680005469BB0184605DA8B234FF0FF302B60FD
:101178001BB030BD4FF40273ADF80C300CBF2346E2
:1011880004F1FF33029305934FF6FF730091049126
:10119800ADF80E3002461E9B6946284600F072F8EC
:1011A800431CBCBF8B232B60002CE1D00022009B8A
:1011B8001A70DDE707B5009313460A46014603484F
:1011C8000068FFF7CBFF03B05DF804FB3C0000208C
:1011D8002DE9F0478E6882469E420C469046994615
:1011E80037D88A8912F4906F31D0022325680969AB
:1011F8006F1A656905EB450595FBF3F509F10103E0
:101208003B449D4238BF1D46530530D5294600F062
:1012180035FB064650B90C234FF0FF30CAF80030B2
:10122800A38943F04003A381BDE8F0873A462169CA
:1012380000F0B4FAA38923F4906343F08003A381F8
:1012480026613E4426604E466561ED1BA5604E450D
:1012580000D94E4632464146206800F0AAFAA368F3
:1012680000209B1BA36023681E442660DCE72A46F7
:1012780000F05EFB06460028E2D12169504600F0E6
:10128800B1FAC8E72DE9F04F9DB003938B898046EA
:101298001D060C4616460FD50B696BB9402100F0A8
:1012A800EDFA2060206128B90C23C8F800304FF00F
:1012B800FF30C7E0402363610023099320238DF8A2
:1012C800293030234FF0010B8DF82A3037463D4640
:1012D80015F8013B0BB1252B3ED1B7EB060A0BD015
:1012E8005346324621464046FFF772FF013000F070
:1012F800A480099B534409933B78002B00F09D8000
:1013080000234FF0FF32CDE90523049307938DF8AE
:1013180053301A932F46052217F8011B4F4800F047
:101328002FFA049BD0B9D90644BF20228DF8532048
:101338001A0744BF2B228DF853202A782A2A15D061
:101348002F4600200A25079A394611F8013B303B01
:10135800092B4DD9B8B10FE02F46B8E73F4A3D46B3
:10136800801A0BFA00F018430490D3E7039A111D72
:1013780012680391002A01DB079204E0524243F00D
:101388000203079204933B782E2B0CD17B782A2BEF
:1013980033D1039B02371A1D1B680392002BB8BF79
:1013A8004FF0FF3305932E4D03223978284600F07D
:1013B800E7F938B14023401B03FA00F0049B0137DA
:1013C800034304933978062226487E1C8DF828109A
:1013D80000F0D6F9002838D0234B13BB039B073302
:1013E80023F0070308330393099B4B4409936DE7E4
:1013F80005FB023201200F46A6E700230A251946FD
:1014080001370593384610F8012B303A092A03D9D9
:10141800002BC8D00591C6E705FB0121012307462B
:10142800F0E703AB00932246104B04A94046AFF304
:101438000080B0F1FF3F8146D6D1A3895B063FF516
:1014480036AF09981DB0BDE8F08F03AB0093224674
:10145800064B04A9404600F081F8EAE7D81B0008CB
:10146800DE1B0008E21B000800000000D91100087C
:101478002DE9F04791461F468A680B690646934254
:10148800B8BF1346C9F8003091F843200C46DDF880
:10149800208012B10133C9F800302368990642BF91
:1014A800D9F800300233C9F80030256815F0060570
:1014B80007D104F1190AE368D9F800209B1AAB4256
:1014C80029DC94F843302268003318BF01239206C0
:1014D8002ED404F1430239463046C047013021D0AA
:1014E8002368E56803F00603042B18BF0025D9F824
:1014F80000204FF0000908BFAD1AA368226908BF91
:1015080025EAE5759342C4BF9B1AED181A344D4578
:101518001AD1002008E00123524639463046C04718
:10152800013003D14FF0FF30BDE8F0870135C2E745
:101538003020E11881F843005A1C94F845102244E1
:10154800023382F84310C4E7012322463946304665
:10155800C0470130E6D009F10109D8E72DE9F04389
:1015680001F1430C0C46097E85B06E2917460646E4
:1015780098460C9A00F0B38022D8632936D00AD84E
:10158800002900F0B980582900F0838004F1420551
:1015980084F8421032E0642901D06929F6D1206824
:1015A8001368050603F104012AD51B681160002B96
:1015B80003DA2D225B4284F843206F480A2239E07F
:1015C800732900F09D8008D86F2920D07029DDD1BB
:1015D800236843F02003236003E0752917D0782996
:1015E800D4D17823654884F8453055E0136804F170
:1015F8004205191D1B68116084F8423001238CE0F4
:101608001B6810F0400F116018BF1BB2CFE71368BA
:101618002568181D1060280601D51B6802E06806B9
:10162800FBD51B886F2914BF0A22082252480021C3
:1016380084F843106568002DA560C0F29580216884
:1016480021F004012160002B3DD1002D40F08E8057
:101658006546082A0BD12368DB0708D52369626829
:101668009A42DEBF302305F8013C05F1FF35ACEBAB
:1016780005032361CDF800803B4603AA2146304686
:10168800FFF7F6FE01304DD14FF0FF3005B0BDE851
:10169800F083394884F84510136821681D1D1B68BC
:1016A80015600A060BD5CA0744BF41F02001216026
:1016B8001BB9226822F0200222601022B7E74D06EB
:1016C80048BF9BB2EFE76546B3FBF2F102FB11336B
:1016D800C35C05F8013D0B460029F5D1B9E713684D
:1016E8002568181D6169106028061B6801D51960F6
:1016F80002E06A06FBD51980002365462361B9E735
:101708001368191D11601D6862680021284600F0E1
:1017180037F808B1401B606063682361002384F8D0
:101728004330A7E723692A4639463046C047013087
:10173800AAD023689B0713D4E068039B9842B8BFDC
:101748001846A3E701234A4639463046C0470130C8
:101758009AD00135E368039A9B1AAB42F2DCEBE7B7
:10176800002504F11909F5E7002BACD1037804F141
:10177800420584F842306CE7E91B0008FA1B0008B0
:1017880010B5C9B202449042034601D1002303E0D8
:101798001C7801308C42F6D1184610BD10B5431E96
:1017A8000A44914200D110BD11F8014B03F8014FD2
:1017B800F7E7884210B501EB020307D8421E9942A9
:1017C8000AD011F8014B02F8014FF8E78342F5D926
:1017D8008118D21AD34200D110BD13F8014D01F877
:1017E800014DF7E738B50546002943D051F8043CC8
:1017F8000C1F002BB8BFE41800F0D0F81E4A13687D
:10180800104633B9636014602846BDE8384000F0DC
:10181800C6B8A3420BD921686218934201BF1A685F
:101828005B685218226063600460EDE713465A68EB
:101838000AB1A242FAD919685818A0420BD12068F7
:101848000144581882421960DED110685268014478
:1018580019605A60D8E702D90C232B60D4E72068B6
:1018680021188A4201BF1168526809182160626014
:101878005C60C9E738BD00BF5448002070B5CD1C76
:1018880025F0030508350C2D38BF0C25002D06461C
:1018980001DBA94203D90C233360002070BD00F09E
:1018A8007DF8214A1468214691B9204C23681BB958
:1018B800304600F063F820602946304600F05EF8B4
:1018C800431C24D10C233046336000F068F8E4E769
:1018D8000B685B1B18D40B2B0FD90B60CC18CD50A1
:1018E800304600F05CF804F10B00231D20F00700DF
:1018F800C31AD3D05A42E250D0E74B688C4216BF85
:10190800636013600C46EBE70C464968CCE7C41CDF
:1019180024F00304A04205D0211A304600F02EF826
:101928000130CFD02560DBE754480020584800201C
:10193800F8B5074614460E4621B9BDE8F8401146E9
:10194800FFF79CBF22B9FFF74DFF25462846F8BD93
:1019580000F026F8A0420FD221463846FFF78EFF46
:1019680005460028F2D031462246FFF717FF3146D8
:101978003846FFF737FFE9E73546E7E738B500238C
:10198800054C054608462360FEF7F4FC431C02D1CB
:10199800236803B12B6038BD5C480020704770474E
:1019A80051F8043C181F002BBCBF0B58C0187047D7
:1019B800537461636B206672616D653A0A000000BA
:1019C800205230203D2020253038580A00000000E1
:1019D800205231203D2020253038580A00000000D0
:1019E800205232203D2020253038580A00000000BF
:1019F800205233203D2020253038580A00000000AE
:101A080020523132203D20253038580A000000008D
:101A1800204C52203D2020253038580A0000000074
:101A2800205043203D2020253038580A000000006F
:101A380020505352203D20253038580A000000001D
:101A48004653522F4641523A0A000000204346535B
:101A580052203D2020253038580A0000204846539F
:101A680052203D2020253038580A00002044465393
:101A780052203D2020253038580A00002041465386
:101A880052203D2020253038580A0000204D4D4670
:101A98004152203D20253038580A00002042464156
:101AA80052203D2020253038580A00004D697363C4
:101AB8000A000000204C522F4558435F52455455A8
:101AC800524E3D20253038580A0000005B486172AC
:101AD800644661756C745D0A000000005B427573B2
:101AE8004661756C745D0A005B5573616765466194
:101AF800756C745D0A00000041542B4349505354DF
:101B08004152543D222573222C222573222C25690B
:101B18000D0A000041542B43495053454E443D257E
:101B2800690D0A004745542025730D0A000000007E
:101B380041542B43574A41505F4355523D22257328
:101B4800222C222573220D0A0000000041542B523A
:101B580053540D0A00000000415445300D0A00009E
:101B680041542B43574D4F44453D310D0A00000069
:101B780001000002450000000000000241030000CF
:101B88000000000241030000303130313031303183
:101B98003030000046696572726F000068747470B6
:101BA8003A2F2F6F74612E7565756F2E636F6D2FC9
:101BB80070726F6772616D2E747874003136322ED0
:101BC8003235332E3135352E3232360054435000FB
:101BD800232D302B2000686C4C006566674546470E
:101BE8000030313233343536373839414243444591
:101BF8004600303132333435363738396162636400
:031C08006566000E
:101C0C0078563412AC0000200000000000000000E8
:101C1C0000000000010203040607080900A24A04A0
:101C2C00000000080038014000440040004800401B
:101C3C00004C00400050004001FFFFFF400000201E
:101C4C000000000000000000000000000000000088
:101C5C000000000000000000000000000000000078
:101C6C000000000000000000000000000000000068
:101C7C000000000000000000000000000000000058
:101C8C000000000000000000000000000000000048
:101C9C000000000000000000000000000000000038
:041CAC0032547698A0
:040000050800010DE1
:00000001FF
